:020000040800F2
:10000000A8060020350200083D0200083F02000853
:1000100041020008430200084502000800000000F9
:10002000000000000000000000000000470200087F
:1000300049020008000000004B0200084D020008C1
:100040004F0200084F0200084F0200084F0200084C
:100050004F0200084F0200084F0200084F0200083C
:100060004F0200084F0200084F0200084F0200082C
:100070004F0200084F0200084F0200084F0200081C
:100080004F0200084F0200084F0200085D070008F9
:10009000090700083D0700084F0200084F0200084A
:1000A0004F0200084F0200084F0200084F020008EC
:1000B0004F0200084F0200084F0200084F020008DC
:1000C0004F0200084F0200084F0200084F020008CC
:1000D0004F0200084F0200084F0200084F020008BC
:1000E0004F0200084F0200084F0200084F020008AC
:1000F0004F0200084F0200084F0200084F0200089C
:100100004F0200084F0200084F0200084F0200088B
:100110004F0200084F0200084F0200084F0200087B
:100120004F0200084F0200084F0200084F0200086B
:100130004F0200084F0200084F0200084F0200085B
:100140004F0200084F0200084F0200084F0200084B
:100150004F0200084F0200084F0200084F0200083B
:1001600065180008451800084F0200084F020008F3
:100170004F0200084F0200084F0200080000000074
:10018000000000004F0200084F0200084F02000864
:100190004F02000800F002F800F03CF80AA090E8D6
:1001A000000C82448344AAF10107DA4501D100F032
:1001B00031F8AFF2090EBAE80F0013F0010F18BFC3
:1001C000FB1A43F00103184770240000902400003C
:1001D000103A24BF78C878C1FAD8520724BF30C873
:1001E00030C144BF04680C60704700000023002445
:1001F00000250026103A28BF78C1FBD8520728BF37
:1002000030C148BF0B6070471FB502F000FA1FBD38
:1002100010B510BD00F031F81146FFF7F5FF02F000
:100220007BF900F04FF803B4FFF7F2FF03BC00F0D6
:1002300057F800000948804709480047FEE7FEE7F5
:10024000FEE7FEE7FEE7FEE7FEE7FEE7FEE7FEE786
:1002500004480549054A064B70470000A5240008DC
:1002600095010008A8000020A8060020A802002090
:10027000A8020020704770477047754600F02CF8C0
:10028000AE4605006946534620F00700854618B083
:1002900020B5FFF7DDFFBDE820404FF000064FF02E
:1002A00000074FF000084FF0000BAC46ACE8C00967
:1002B000ACE8C009ACE8C009ACE8C00921F007010E
:1002C0008D46704710B50446AFF300802046BDE868
:1002D0001040FFF7A8BF000000487047080000204A
:1002E00001491820ABBEFEE726000200704700005F
:1002F00080B586B000F054F845F60040C4F2000026
:10030000019001F0ADFC019800218DF80C104BF626
:10031000FF72ADF80E2048F2A062C0F20102029214
:1003200001228DF812204FF48042ADF81420ADF870
:10033000101002A901F0C2FA019801F08BFB01989C
:1003400001F092FB06B080BD80B584B003900291AD
:100350000192039840F27401C2F200018860029891
:100360000861019868B9FFE740F27401C2F2000128
:100370000120087346F27000C4F2020000F016FF7C
:100380000CE040F27401C2F200010020087346F252
:100390004000C4F2020000F009FFFFE704B080BD96
:1003A00080B58EB04FF40000019001F0EFFD052004
:1003B00001F0E0FD4FF4804001F000FE019801F0F3
:1003C000F1FD019801F0C0FD0020C4F2020003908D
:1003D00008210422029201F08BF9029A40F60000F3
:1003E000C4F202000490092101F082F9039802226C
:1003F00006928DF83220012107918DF834108DF886
:1004000033204FF48072ADF830208DF835100CA9F0
:10041000059101F0F1F8049805994FF40072ADF8D8
:10042000302001F0E9F84FF4001001F0A3FD46F28E
:100430007000C4F2020008904FF20001C2F6407151
:10044000099100F081FE089800F042FF089800F042
:1004500091FFDDF818C0079A089840F27401C2F2C3
:1004600000010B9103230B7045F61043C4F2000307
:100470004B6000238B600A734FF6FF7EC1F810E0DB
:100480000B758B75CB750B7681F819C08B76CB7697
:100490000B774B774A7500F089FE099946F24000C8
:1004A000C4F202000A9000F04FFE0A9800F010FF1C
:1004B0000A9800F05FFF0A980B9900F077FE0EB0E3
:1004C00080BD000080B582B08DF806008DF8051063
:1004D00040F27001C2F200014FF4C8700860FFE7FB
:1004E00045F60040C4F20000052101F005FBA0B173
:1004F000FFE740F27002C2F200021068411E116074
:1005000050B9FFE745F60040C4F2000001F0B6FA2A
:1005100001208DF80700F3E0E2E745F60040C4F261
:10052000000001F0ABFA40F27001C2F200014FF49A
:10053000C8700860FFE745F60040C4F200000121E2
:10054000C0F2030101F0AEFAC0B9FFE740F2700259
:10055000C2F200021068411E116070B9FFE740F25C
:100560007002C2F200021068411E116020B9FFE75C
:1005700001208DF80700C3E0FFE7DCE745F6004007
:10058000C4F200002421002201F0A4FB40F270011B
:10059000C2F200014FF4C8700860FFE745F6004062
:1005A000C4F200008221C0F2070101F07BFA70B9A9
:1005B000FFE740F27002C2F200021068411E1160B3
:1005C00020B9FFE701208DF8070099E0E6E79DF8E4
:1005D000061045F60040C4F2000001F09DFB40F219
:1005E0007001C2F200014FF4C8700860FFE745F6E1
:1005F0000040C4F200008021C0F2070101F052FA6D
:1006000070B9FFE740F27002C2F200021068411EAA
:10061000116020B9FFE701208DF8070070E0E6E7E0
:100620009DF8050080B3FFE79DF8051040F26800D3
:10063000C2F200000022FFF787FE46F27000C4F20B
:10064000020000F04FFE40F27001C2F200014FF4D0
:100650007A600860FFE746F27000C4F202004FF0D3
:10066000C05100F049FE70B9FFE740F27002C2F2DB
:1006700000021068411E116020B9FFE701208DF8CB
:1006800007003DE0E7E7FFE740F27001C2F200013A
:100690004FF4C8700860FFE745F60040C4F2000060
:1006A0008421C0F2070101F0FDF970B9FFE740F2C3
:1006B0007002C2F200021068411E116020B9FFE70B
:1006C00001208DF807001BE0E6E745F60040C4F284
:1006D000000001F0DDF99DF8050068B1FFE746F282
:1006E0007000C4F20200009000F0F2FD00984FF09C
:1006F000C05100F029FDFFE700208DF80700FFE75B
:100700009DF8070002B080BD80B58AB046F2004077
:10071000C4F2000001900021029103AA00F0CAFB7C
:100720000198029900F088FB40F60040C4F20200F4
:100730004FF4005101F07AF80AB080BD80B540F660
:100740000040C4F202004FF4005101F06FF84FF680
:10075000FF70C0F20F0000F043FF80BD80B56FF066
:100760007F4000F03DFF80BD86B0059004910020E1
:100770008DF80F0002900599086820F002000860CB
:100780000599086840F001000860FFE70598416896
:100790000020C907019041B9FFE702984FF6FF71A9
:1007A000401A18BF01200190FFE70198C00720B14F
:1007B000FFE7029801300290E8E705984068C0071B
:1007C00020B9FFE700208DF80F00B6E0049800780C
:1007D000012806D1FFE70599086840F0400008604D
:1007E00005E00599086820F040000860FFE70498DC
:1007F0004078012806D1FFE70599086840F02000FD
:10080000086005E00599086820F020000860FFE70F
:1008100004988078012806D1FFE70599086840F020
:100820001000086005E00599086820F010000860D5
:10083000FFE70498C078012806D1FFE7059908680A
:1008400040F00800086005E00599086820F00800FD
:100850000860FFE704980079012806D1FFE70599B1
:10086000086840F00400086005E00599086820F079
:1008700004000860FFE70599C86920F04040C8619E
:10088000049842790599C86940EA8270C861049861
:1008900082790599C86902F0030220F0407040EAAD
:1008A0000260C8610498C2790599C86902F00F0214
:1008B00020F4702040EA0240C8610498027A059949
:1008C000C86902F0070220F4E00040EA0250C86163
:1008D00004984089421E0599C86962F30900C861FD
:1008E0000599086820F00100086000200290FFE7E9
:1008F000059841680020C907009041B1FFE70298C0
:100900004FF6FF71401A18BF01200090FFE70098D2
:10091000C00720B1FFE7029801300290E8E7059890
:100920004068C00720B1FFE700208DF80F0003E00A
:1009300001208DF80F00FFE7FFE79DF80F0006B0DC
:100940007047000082B0019000910199D1F8000237
:1009500040F00100C1F8000200980178012000FA7F
:1009600001F20199D1F81C029043C1F81C020098D1
:10097000807B10BBFFE700980178012000FA01F2AC
:100980000199D1F80C029043C1F80C02009A118928
:10099000908840EA01400199127801EBC201C1F848
:1009A0004002009AD188508840EA014001991278AB
:1009B00001EBC201C1F84402FFE70098807B0128E7
:1009C00022D1FFE700980178012000FA01F2019995
:1009D000D1F80C021043C1F80C02009A518890889B
:1009E00040EA01400199127801EBC201C1F84002CE
:1009F000009AD188108940EA01400199127801EBF0
:100A0000C201C1F84402FFE70098407B60B9FFE7EC
:100A100000980178012000FA01F20199D1F804024E
:100A20009043C1F804020BE000980178012000FA1D
:100A300001F20199D1F804021043C1F80402FFE762
:100A40000098007B60B9FFE700980178012000FA68
:100A500001F20199D1F814029043C1F81402FFE7A2
:100A60000098007B01280CD1FFE700980178012055
:100A700000FA01F20199D1F814021043C1F81402EE
:100A8000FFE70098408901280CD1FFE70098017822
:100A9000012000FA01F20199D1F81C021043C1F8BB
:100AA0001C02FFE70199D1F8000220F00100C1F813
:100AB000000202B07047000081B000900099002051
:100AC000087000994870009988700099C870009962
:100AD0000871009948710099887100990320C871C4
:100AE00000990220087200990120488101B07047E6
:100AF00081B000900099086820F48030086001B04F
:100B00007047000080B59AB00420069001F032FAD8
:100B10000220039001F02EFA40F20040C4F20200DD
:100B20000290082108910922019200F0E1FD019A4A
:100B30000298114600F0DCFD029803994FF4807290
:100B4000ADF860208DF86310002107918DF86210D8
:100B500001210A918DF8651018A9049100F04CFD4F
:100B60000298DDF80CC00499079B0A9A4FF4007EA6
:100B7000ADF860E08DF863C08DF862C08DF8643028
:100B80008DF8652000F038FD039A0499069B0A98B9
:100B9000ADF860308DF863208DF8620040F60000FB
:100BA000C4F20200059000F027FD0598069900F0B8
:100BB00029FE4FF0007001F0E9F94FF6FF70C0F226
:100BC0000F0000F00DFD46F20040C4F200000B9053
:100BD00000F048F90B98FFF78BFF15A80990FFF775
:100BE0006BFF079A0B980A9903238DF859308DF8FB
:100BF0005A201523ADF85E3005238DF85B308DF853
:100C00005C208DF854208DF855208DF856208DF8F5
:100C100057208DF85820036823F0010303608DF8F6
:100C200044208DF851208DF85210ADF84620ADF8D3
:100C30004820ADF84A20ADF84C208DF85020ADF892
:100C40004E1011A9FFF77EFE079A08990B981323FF
:100C50000C930D928DF838208DF839208DF83A10CC
:100C6000F1218DF83B100CA900F0CEF9099902464C
:100C70000B9840F2A003C2F200031A60FFF774FD64
:100C80000A9902460B9840F29C03C2F200031A60D4
:100C900000F008F840F29801C2F2000108601AB0B2
:100CA00080BD000086B005908DF8131000208DF8EF
:100CB00012004FF6FF7003909DF81300C0BBFFE7D2
:100CC0000599086820F0020008600599086840F05E
:100CD00001000860FFE7059841680020C9070290FD
:100CE00071B9FFE70598406841080020C9070290E4
:100CF00031B1FFE70398002818BF01200290FFE7F9
:100D00000298C00720B1FFE7039801380390E2E79B
:100D100005984068C00750B1FFE705984068400853
:100D2000C00720B9FFE701208DF81200FFE77FE040
:100D30009DF81300012839D1FFE70599086820F0D4
:100D4000020008600599086820F0010008604FF66D
:100D5000FF700390FFE705984068C00740B9FFE7C0
:100D60000598406841080020C907019031B1FFE7AC
:100D70000398002818BF01200190FFE70198C007E1
:100D800020B1FFE7039801380390E4E70598406835
:100D9000C00730B1FFE7059840684008C00720B998
:100DA000FFE701208DF81200FFE740E09DF81300F7
:100DB00002283BD1FFE70599086840F0020008606F
:100DC0000599086820F0010008604FF6FF70039055
:100DD000FFE7059841680020C907009071B1FFE75F
:100DE0000598406841080020C907009031B9FFE725
:100DF0000398002818BF01200090FFE70098C00763
:100E000020B1FFE7039801380390E2E705984068B6
:100E1000C00750B9FFE7059840684008C00720B1F7
:100E2000FFE701208DF81200FFE7FFE7FFE7FFE78C
:100E30009DF8120006B0704782B001908DF8031043
:100E40009DF8030030B9FFE70199C86840F0200021
:100E5000C86005E00199086940F020000861FFE7DB
:100E600002B0704780B584B00390039846F2004109
:100E7000C4F20001884209D1FFE74FF000700290F0
:100E800001F090F8029801F05FF811E0039846F63F
:100E90000001C4F20001884209D1FFE74FF08060F1
:100EA000019001F07FF8019801F04EF8FFE7FFE7AD
:100EB00004B080BD83B002908DF8071000920298B4
:100EC0009DF8071000EB0110D0F8B00100F004000D
:100ED000009988600098806858B9FFE702989DF8EB
:100EE000071000EB0110D0F8B001400D0099086028
:100EF0000AE002989DF8071000EB0110D0F8B0014D
:100F0000C00800994860FFE702989DF8071000EBC1
:100F10000110D0F8B001C0F340000099C8600298F9
:100F20009DF8071000EB0110D0F8B40100F00F009D
:100F30000099087402989DF8071000EB0110D0F892
:100F4000B401000A0099487602989DF8071000EB5A
:100F50000110D0F8B8010099487402989DF8071064
:100F600000EB0110D0F8B801000A009988740298CB
:100F70009DF8071000EB0110D0F8B801000C0099A3
:100F8000C87402989DF8071000EB0110D0F8B80162
:100F9000000E0099087502989DF8071000EB0110EB
:100FA000D0F8BC010099487502989DF8071000EB35
:100FB0000110D0F8BC01000A0099887502989DF8CC
:100FC000071000EB0110D0F8BC01000C0099C875A7
:100FD00002989DF8071000EB0110D0F8BC01000E3C
:100FE000009908769DF8070030B9FFE70299C868B4
:100FF00040F02000C86005E00299086940F0200038
:101000000861FFE703B0704784B0029001910020AF
:101010008DF80300029880684001002804D5FFE79E
:1010200000208DF8030019E0029880680001002874
:1010300004D5FFE701208DF803000EE002988068D8
:10104000C000002804D5FFE702208DF8030003E06C
:1010500003208DF80F0073E0FFE7FFE702989DF88B
:10106000031000EB0111D1F8800100F00100C1F87C
:1010700080010198007A80B9FFE701980168407A01
:1010800040EA415202989DF8031000EB0111D1F89B
:1010900080011043C1F8800112E001994A68087A82
:1010A00040EAC200497A40EA010202989DF8031022
:1010B00000EB0111D1F880011043C1F88001FFE776
:1010C0000199887A00F00F00887202989DF8031049
:1010D00000EB0111D1F8840120F00F00C1F8840168
:1010E0000198827A02989DF8031000EB0111D1F863
:1010F00084011043C1F884010198D0F80B000299D3
:101100009DF8032001EB0211C1F888010198D0F885
:101110000F0002999DF8032001EB0211C1F88C0128
:1011200002989DF8031000EB0111D1F8800140F006
:101130000100C1F880019DF803008DF80F00FFE762
:101140009DF80F0004B0704783B00290019102989F
:1011500046F20F41C4F20201884206D8FFE746F288
:101160000000C4F20200009005E046F20040C4F224
:1011700002000090FFE79DF80700C006002809D490
:10118000FFE7019840F67D71C0F67D710840009937
:10119000886008E0019840F67D71C0F67D710840D6
:1011A0000099C860FFE703B07047000082B001906B
:1011B00000910098027B0199086802F0030220F078
:1011C000C00040EA821008600098027E0199086819
:1011D00002F0010220F4807040EA022008600098CA
:1011E000027D0199086802F0010220F4007040EAD3
:1011F000422008600098427D0199086802F00102CF
:1012000020F4806040EA822008600098827D019985
:10121000086802F0030220F4C05040EAC2200860CF
:101220000098C27D0199086802F0030220F4C040D2
:1012300040EA423008600098427E0199086802F056
:10124000030220F4403040EA024008600098427FE8
:101250000199086802F0030220F4C00040EA4250FD
:1012600008600098027F0199086802F0030220F0EC
:10127000C07040EAC250086000980278019908687E
:1012800002F0070220F0606040EA426008600098C7
:101290000069019948600098406801998860009849
:1012A00080680199C8600098827E0199486902F0BF
:1012B000010220F0040040EA820048610098C27EEA
:1012C0000199486962F30100486102B0704700006B
:1012D00081B000900099086820F00100086001B01A
:1012E0007047000081B000900099086840F001004C
:1012F000086001B07047000084B00290019102982C
:1013000046F20F41C4F20201884206D8FFE746F2D6
:101310000000C4F20200009005E046F20040C4F272
:1013200002000090FFE79DF80700C00600280ED5D8
:10133000FFE7009800680199084204D0FFE7012008
:101340008DF80F0011E000208DF80F000DE00098DF
:1013500040680199084204D0FFE701208DF80F0092
:1013600003E000208DF80F00FFE79DF80F0004B0A8
:101370007047000081B000900099086820F00100DB
:101380000860009900200860009948600099886012
:101390000099C8600099086100992120486100986F
:1013A00046F21001C4F20201884209D1FFE746F279
:1013B0000801C4F20201086840F03D0008600DE138
:1013C000009846F22801C4F20201884209D1FFE7E1
:1013D00046F20801C4F20201086840F47460086033
:1013E000FBE0009846F24001C4F20201884209D1B4
:1013F000FFE746F20801C4F20201086840F47410E5
:101400000860E9E0009846F25801C4F202018842FF
:1014100009D1FFE746F20801C4F20201086840F072
:1014200074600860D7E0009846F27001C4F20201CF
:10143000884209D1FFE746F20C01C4F202010868B4
:1014400040F03D000860C5E0009846F28801C4F213
:101450000201884209D1FFE746F20C01C4F2020101
:10146000086840F474600860B3E0009846F2A00198
:10147000C4F20201884209D1FFE746F20C01C4F22E
:101480000201086840F474100860A1E0009846F278
:10149000B801C4F20201884209D1FFE746F20C010B
:1014A000C4F20201086840F0746008608FE00098A0
:1014B00046F21041C4F20201884209D1FFE746F228
:1014C0000841C4F20201086840F03D0008607DE078
:1014D000009846F22841C4F20201884209D1FFE790
:1014E00046F20841C4F20201086840F474600860E2
:1014F0006BE0009846F24041C4F20201884209D1F3
:10150000FFE746F20841C4F20201086840F4741093
:10151000086059E0009846F25841C4F2020188423E
:1015200009D1FFE746F20841C4F20201086840F021
:101530007460086047E0009846F27041C4F202010E
:10154000884209D1FFE746F20C41C4F20201086863
:1015500040F03D00086035E0009846F28841C4F252
:101560000201884209D1FFE746F20C41C4F20201B0
:10157000086840F47460086023E0009846F2A041D7
:10158000C4F20201884209D1FFE746F20C41C4F2DD
:101590000201086840F47410086011E0009846F2F7
:1015A000B841C4F20201884209D1FFE746F20C417A
:1015B000C4F20201086840F074600860FFE7FFE7CA
:1015C000FFE7FFE7FFE7FFE7FFE7FFE7FFE7FFE7EB
:1015D000FFE7FFE7FFE7FFE7FFE7FFE701B070473F
:1015E00081B00090FFE70098411E009108B1FFE72D
:1015F000F9E701B07047000085B004900391002026
:101600000290019000900290FFE702980F286CD89A
:10161000FFE7029901208840019003980088019912
:101620000840009000980199884259D1FFE702983C
:101630004100032000FA01F2049908689043086011
:10164000039880780299490000FA01F20499086829
:101650001043086003988078012805D0FFE70398BD
:101660008078022827D1FFE702984100032000FA82
:1016700001F204998868904388600398C0780299C1
:10168000490000FA01F20499886810438860BDF8A7
:101690000810012000FA01F204994868904348605C
:1016A00003980079BDF80810884082B20499486810
:1016B00010434860FFE7BDF808004100032000FA2E
:1016C00001F20499C8689043C86003984079029970
:1016D000490000FA01F20499C8681043C860FFE7A6
:1016E000FFE70298013002908FE705B070470000D5
:1016F00084B003908DF80B108DF80A200020019023
:1017000000909DF80B10B0EBD10F1ED1FFE79DF8B4
:101710000A009DF80B1001F0070189008840019034
:101720009DF80B0000F0070081000F2000FA01F285
:101730000399086A904308620398006A0199084374
:1017400000900098039908621DE09DF80A009DF83A
:101750000B1001F007018900884001909DF80B00F3
:1017600000F0070081000F2000FA01F20399486A97
:10177000904348620398406A01990843009000989A
:1017800003994862FFE704B07047000010B588B0C5
:10179000082000F0EFFB4FF440500590ADF8180022
:1017A000012000908DF81A00002001908DF81C0097
:1017B000022002908DF81B0040F60040C4F20200A7
:1017C000039006A90491FFF717FFDDF800C0019B05
:1017D000029A03980499DDF814E040F61A44C4F222
:1017E0000204A4F800E04FF4004EADF818E08DF8C4
:1017F0001AC08DF81C308DF81B20FFF7FDFE08B0D5
:1018000010BD000082B00190ADF80210BDF80200DA
:101810000199488302B0704782B00190ADF8021080
:10182000BDF802000199088302B0704782B00190B0
:10183000ADF80210BDF80220019948695040486196
:1018400002B0704780B540F29401C2F2000101205D
:10185000087040F60040C4F202004FF40051FFF758
:10186000E5FF80BD80B540F60040C4F202004FF4B1
:101870000051FFF7DBFF80BD45F61441C4F20001C3
:10188000086820F400400860086820F48040086080
:10189000086820F480500860086820F40060086040
:1018A000086820F480600860086820F40070086010
:1018B000086820F4807008607047000080B586B02A
:1018C000059004910020ADF80E00ADF80C0041F237
:1018D0000021C0F27A01029101900420ADF80200CB
:1018E00002A801A900F0F8FB02984DF68361C4F24A
:1018F0001B31A0FB0110800CADF80C00BDF80C20D2
:101900000599486862F3050048600599086820F069
:10191000010008600498006848F2A061C0F201016B
:1019200088421ED8FFE70298049909684900B0FB75
:10193000F1F0ADF80200BDF80200032804DCFFE777
:101940000420ADF80200FFE7BDF80C000130059956
:101950000862BDF80210BDF80E000843ADF80E0095
:1019600046E00498C0884BF6FF7188420AD1FFE731
:1019700002980499096801EB4101B0FBF1F0ADF860
:1019800002000FE002980499096819225143B0FB44
:10199000F1F0ADF80200BDF8020040F48040ADF86F
:1019A0000200FFE7BDF80200000538B9FFE7BDF807
:1019B000020040F00100ADF80200FFE7BDF80200B0
:1019C000BDF80E10084340F40040ADF80E00BDF81D
:1019D0000C004FF49671484344F6D351C1F26201B2
:1019E000A0FB0101012000EB911005990862FFE7BF
:1019F000BDF80E000599C8610599086840F001001E
:101A000008600599086820F48060086005990868F6
:101A100020F0080008600599086820F002000860BE
:101A20000498027905990868104308600498827A3E
:101A30000599086802F0010220F4806040EA8220E3
:101A4000086004998889098908430599886006B067
:101A500080BD000081B000900099086840F001004E
:101A6000086001B07047000081B00090009948689C
:101A700040F40060486001B07047000081B0009001
:101A80000099086840F48070086001B07047000059
:101A900081B000900099086840F40070086001B0BF
:101AA0007047000086B004900391002002900190DE
:101AB00000900498406980B201900498806980B2D7
:101AC000009000980004009001980099084320F0CD
:101AD0007F400290029803990840884204D1FFE7B2
:101AE00001208DF8170003E000208DF81700FFE7B4
:101AF0009DF8170006B0704783B002908DF807106C
:101B000000208DF806009DF807000146009114287A
:101B100000F2A1800099DFE801F00B121920272EB6
:101B2000353C434A51585F666D747B8289909700BB
:101B300002988069C0F3C0108DF806008CE002980E
:101B40008069C0F380108DF8060085E002988069F6
:101B5000C0F340108DF806007EE002988069C0F363
:101B600000108DF8060077E002988069C0F38000CD
:101B70008DF8060070E002988069C0F340008DF88F
:101B8000060069E00298806900F001008DF8060007
:101B900062E002984069C0F3C0308DF806005BE057
:101BA00002984069C0F380308DF8060054E0029836
:101BB0004069C0F300308DF806004DE0029840699E
:101BC000C0F3C0208DF8060046E002984069C0F3DB
:101BD00080208DF806003FE002984069C0F3402065
:101BE0008DF8060038E002984069C0F300208DF8B7
:101BF000060031E002984069C0F3C0108DF806007D
:101C00002AE002984069C0F380108DF8060023E0B6
:101C100002984069C0F300108DF806001CE002989D
:101C20004069C0F3C0008DF8060015E002984069D5
:101C3000C0F380008DF806000EE002984069C0F302
:101C400040008DF8060007E00298406900F00100AE
:101C50008DF8060000E0FFE79DF8060003B070472E
:101C600080B584B00390039845F20041C4F20001AE
:101C7000884209D1FFE74FF40010029000F092F97A
:101C8000029800F061F923E0039845F60001C4F2E0
:101C90000001884209D1FFE74FF48000019000F075
:101CA00081F9019800F050F911E0039845F60041E0
:101CB000C4F20001884209D1FFE74FF40000009010
:101CC00000F070F9009800F03FF9FFE7FFE7FFE749
:101CD00004B080BD82B001908DF803108DF8022011
:101CE0009DF8020058B1FFE79DF8030001990A69C9
:101CF00022F0FE02104340F0010008610AE09DF866
:101D000003200199086902F0FE0220F0FF00104450
:101D10000861FFE702B0704782B001908DF80310B0
:101D20009DF803200199086920F0FF001044086124
:101D300002B0704762B6704780B582B08DF8070078
:101D40009DF807000146009120B1FFE700980128A7
:101D500003D005E000F006F802E000F00DF8FFE720
:101D600002B080BD80B540F60040C4F202004FF4DE
:101D70000041FFF747FD80BD80B540F60040C4F24A
:101D800002004FF40041FFF747FD80BD43F67401A8
:101D9000C4F20201086840F08070086070470000DB
:101DA00081B08DF803009DF8032043F60801C4F2CA
:101DB0000201086802F00F0220F0F00040EA021071
:101DC000086001B07047000081B08DF803009DF8F5
:101DD000032043F60801C4F20201086802F007027A
:101DE00020F4E05040EA8220086001B07047000013
:101DF00081B08DF803009DF8032043F60801C4F27A
:101E00000201086802F0070220F4604040EA423014
:101E1000086001B07047000081B08DF8030043F600
:101E20000001C4F20201086820F4803008600868EC
:101E300020F4802008609DF80300012809D1FFE705
:101E400043F60001C4F20201086840F480300860E3
:101E500012E09DF8030002280DD1FFE743F60001D0
:101E6000C4F20201086840F480200860086840F469
:101E700080300860FFE7FFE701B0704784B0DDF80D
:101E800010C00390029101928DF80330039A43F63B
:101E90000401C4F20201086802F0010220F480008B
:101EA00040EA82500860029A086862F30500086000
:101EB000019A08686FF35F2247F6C073984340EABF
:101EC000821008609DF80320086802F0030220F4E5
:101ED000403040EA02400860049A086802F00F02AD
:101EE00020F0706040EA0260086004B070470000B3
:101EF00082B001900091019A43F68401C4F202017C
:101F000008686FF35F2247F6C073984340EA821077
:101F10000860009A086802F0070220F0E04040EAFA
:101F20000270086002B0704781B08DF803009DF820
:101F3000032043F60801C4F20201086862F30100BD
:101F4000086001B07047000081B00090009A43F62D
:101F50002001C4F2020108689043086001B0704794
:101F600043F60001C4F20201086820F00100086095
:101F70007047000081B00090009A43F63001C4F22F
:101F8000020108681043086001B0704781B00090FA
:101F9000009A43F64001C4F2020108681043086049
:101FA00001B0704781B00090009A43F62001C4F25E
:101FB000020108681043086001B0704781B00090CA
:101FC000009A43F64401C4F2020108681043086015
:101FD00001B0704743F60001C4F20201086840F006
:101FE000807008607047000043F60001C4F20201EF
:101FF000086840F0806008607047000080B582B0DB
:102000000120FFF709FFFFE700F008F9012801D0E0
:10201000FFE7F9E769460420086001200821A822AB
:102020000023FFF72BFF4FF4C07002210191FFF74F
:102030005FFFFFF7CFFFFFF7D7FF0198FFF774FFB0
:1020400043F60801C4F20201086820F400000860A9
:10205000FFE743F60800C4F202000068C0F3810005
:10206000022801D0FFE7F4E7FFF77AFF0720FFF728
:1020700097FE0420FFF7A8FE0320FFF7B9FE4FF4F8
:102080008040FFF79BFF00F07DF902B080BD0000AB
:1020900080B588B040F20670C0F60810049040F297
:1020A0000120C0F20340039000200290019000F054
:1020B00049F8069043F60800C4F202000068C0F335
:1020C000031101A8405C079006980799C840059045
:1020D000059808B080BD000080B586B005900491D9
:1020E00040F20120C0F20340019000200090FFF771
:1020F000CFFF0390059880B1FFE743F60800C4F2D4
:1021000002000068C0F382216846405C0290039898
:102110000299C84005990860FFE7049880B1FFE77D
:1021200043F60800C4F202000068C0F3423168467A
:10213000405C029003980299C84004990860FFE748
:1021400006B080BD85B043F60800C4F20200006806
:10215000C0F3810004900498009040B1FFE700981C
:1021600001280AD0FFE7009802280CD04CE042F288
:102170000040C0F2F40004904CE041F20020C0F2B4
:102180007A00049046E043F60400C4F202000168BD
:1021900001F03F0103910068C0F380500290029863
:1021A000012811D1FFE7039941F20020C0F27A0023
:1021B000B0FBF1F043F60401C4F202010968C1F377
:1021C00088114843019010E0039942F20040C0F2A8
:1021D000F400B0FBF1F043F60401C4F20201096817
:1021E000C1F3881148430190FFE7019843F60401C9
:1021F000C4F202010968C1F30142022101EB42016C
:10220000B0FBF1F0049005E042F20040C0F2F400AF
:102210000490FFE7049805B07047000082B00020EA
:102220000090FFE70098000B042812D8FFE743F660
:102230000000C4F202000068400CC00720B1FFE7B4
:1022400001208DF8070008E0FFE7009801300090BA
:10225000E8E700208DF80700FFE79DF8070002B0CF
:102260007047000081B043F60001C4F20201086823
:1022700040F48030086000200090FFE70098000BD9
:1022800004280FD8FFE743F60000C4F202000068FC
:10229000400CC00708B1FFE704E0FFE700980130F9
:1022A0000090EBE743F60000C4F202000068400C27
:1022B000C007002863D0FFE743F64001C4F20201E3
:1022C000086840F08050086047F20001C4F2000145
:1022D000086840F48040086043F60801C4F2020137
:1022E000086820F0F00008600868042262F34F30AC
:1022F00008600868052262F38C20086043F6040138
:10230000C4F2020145F20840C0F20070086008689B
:1023100040F48000086043F60001C4F2020108683E
:1023200040F080700860FFE743F60000C4F202004E
:102330000068400EC00708B9FFE7F5E743F6004123
:10234000C4F2020140F20570086043F60801C4F2CD
:102350000201086820F0030008600868022262F3A6
:1023600001000860FFE743F60800C4F202000068BD
:10237000C0F38100022801D0FFE7F4E700E0FFE7A7
:1023800001B0704786B043F60800C4F2020000684E
:10239000C0F3810005900598009040B1FFE70098D8
:1023A00001280ED0FFE70098022814D059E040F22F
:1023B0000001C2F2000142F20040C0F2F4000860E5
:1023C00059E040F20001C2F2000141F20020C0F2E7
:1023D0007A0008604FE043F60400C4F2020001688E
:1023E000C1F380510291006800F03F000190029813
:1023F00088B9FFE7019942F20040C0F2F400B0FB57
:10240000F1F043F60401C4F202010968C1F3881136
:102410004843049010E0019941F20020C0F27A0094
:10242000B0FBF1F043F60401C4F202010968C1F304
:10243000881148430490FFE743F60400C4F2020009
:102440000068C0F30141022000EB410003900498B2
:102450000399B0FBF1F040F20001C2F20001086004
:1024600009E040F20001C2F2000142F20040C0F275
:10247000F4000860FFE743F60800C4F202000068B9
:10248000C0F3031142F22860C0F60000405C0590E2
:10249000059A40F20001C2F200010868D0400860CD
:1024A00006B0704780B54EF68851CEF2000108683C
:1024B00040F47000086043F60002C4F202021068A3
:1024C00040F00100106043F60801C4F20201002050
:1024D000086011684FF6FF73CFF6F663194011607C
:1024E00043F60403C4F2020343F21001C2F20041B6
:1024F0001960116821F48021116043F60C01C4F2C7
:1025000002010860FFF7AEFE4EF60851CEF2000160
:102510004FF00060086080BD80B588B00020029058
:102520000790FFF76BFDFFF731FC4FF47A6000F086
:102530005DF8FFF72BF9FDF7DBFE00F04DF840F6F4
:10254000B83000F053F80120FFF7F6FBFFF794F9DD
:102550006FF07F400190FFF743F8FFF799FD069079
:10256000FFF7F0FD0146019805919DF8101041F02C
:1025700080018DF810109DF8101001F0F001053168
:102580008DF810109DF8101001F08F018DF80F10CC
:10259000FFF726F802988DF80E00FFE76FF07F40F6
:1025A0000090FFF71DF840F60040C4F202004FF41F
:1025B0008051FFF73BF940F26801C2F2000185202B
:1025C000087011200121FDF77DFF014600988DF86C
:1025D0000D10FFF705F8E1E780B582B0FEF792FA3B
:1025E000FFF7A8FB019802B080BD000082B0019007
:1025F00000200090FFE700980199884205D2FFE78C
:10260000FFE7009801300090F5E702B07047F1EE67
:10261000100A4FF6FF71C0F2C03120EA010040F00D
:102620004070E1EE100A704700000000000000005A
:1026300001020304060708095826000800000020CC
:1026400008000000D00100086026000808000020F3
:10265000A0060000EC010008007A030A0000000058
:040000050800019559
:00000001FF
