:020000040800F2
:1000000068060020350200083D0200083F02000893
:1000100041020008430200084502000800000000F9
:10002000000000000000000000000000470200087F
:1000300049020008000000004B0200084D020008C1
:100040004F0200084F0200084F0200084F0200084C
:100050004F0200084F0200084F0200084F0200083C
:100060004F0200084F0200084F0200084F0200082C
:100070004F0200084F0200084F0200084F0200081C
:100080004F0200084F0200084F0200084F0200080C
:100090004F0200084F0200084F0200084F020008FC
:1000A0004F0200084F0200084F0200084F020008EC
:1000B0004F0200084F0200084F0200084F020008DC
:1000C0004F0200084F0200084F0200084F020008CC
:1000D0004F0200084F0200084F0200084F020008BC
:1000E0004F0200084F0200084F0200084F020008AC
:1000F0004F0200084F0200084F0200084F0200089C
:100100004F0200084F0200084F0200084F0200088B
:100110004F0200084F0200084F0200084F0200087B
:100120004F0200084F0200084F0200084F0200086B
:100130004F0200084F0200084F0200084F0200085B
:100140004F0200084F0200084F0200084F0200084B
:100150004F0200084F0200084F0200084F0200083B
:100160004F0200084F0200084F0200084F0200082B
:100170004F0200084F0200084F0200080000000074
:10018000000000004F0200084F0200084F02000864
:100190004F02000800F002F800F03CF80AA090E8D6
:1001A000000C82448344AAF10107DA4501D100F032
:1001B00031F8AFF2090EBAE80F0013F0010F18BFC3
:1001C000FB1A43F001031847600D0000800D00008A
:1001D000103A24BF78C878C1FAD8520724BF30C873
:1001E00030C144BF04680C60704700000023002445
:1001F00000250026103A28BF78C1FBD8520728BF37
:1002000030C148BF0B6070471FB500F078FE1FBDBE
:1002100010B510BD00F031F81146FFF7F5FF00F002
:100220004DFE00F04FF803B4FFF7F2FF03BC00F0FF
:1002300057F800000948804709480047FEE7FEE7F5
:10024000FEE7FEE7FEE7FEE7FEE7FEE7FEE7FEE786
:1002500004480549054A064B70470000490E00084E
:100260009501000868000020680600206802002050
:1002700068020020704770477047754600F02CF800
:10028000AE4605006946534620F00700854618B083
:1002900020B5FFF7DDFFBDE820404FF000064FF02E
:1002A00000074FF000084FF0000BAC46ACE8C00967
:1002B000ACE8C009ACE8C009ACE8C00921F007010E
:1002C0008D46704710B50446AFF300802046BDE868
:1002D0001040FFF7A8BF000000487047080000204A
:1002E00001491820ABBEFEE726000200704700005F
:1002F00086B00590049100208DF80F0002900599BA
:10030000086820F0020008600599086840F00100C4
:100310000860FFE7059841680020C907019041B9CE
:10032000FFE702984FF6FF71401A18BF01200190B5
:10033000FFE70198C00720B1FFE702980130029063
:10034000E8E705984068C00720B9FFE700208DF86E
:100350000F00B6E004980078012806D1FFE7059960
:10036000086840F04000086005E00599086820F042
:1003700040000860FFE704984078012806D1FFE7B5
:100380000599086840F02000086005E005990868B4
:1003900020F020000860FFE704988078012806D14B
:1003A000FFE70599086840F01000086005E005992E
:1003B000086820F010000860FFE70498C078012862
:1003C00006D1FFE70599086840F00800086005E0DD
:1003D0000599086820F008000860FFE70498007994
:1003E000012806D1FFE70599086840F0040008607D
:1003F00005E00599086820F004000860FFE705990A
:10040000C86920F04040C861049842790599C869DC
:1004100040EA8270C861049882790599C86902F03F
:10042000030220F0407040EA0260C8610498C2797B
:100430000599C86902F00F0220F4702040EA0240DA
:10044000C8610498027A0599C86902F0070220F48D
:10045000E00040EA0250C86104984089421E0599B4
:10046000C86962F30900C8610599086820F00100B5
:10047000086000200290FFE7059841680020C90746
:10048000009041B1FFE702984FF6FF71401A18BF84
:1004900001200090FFE70098C00720B1FFE7029815
:1004A00001300290E8E705984068C00720B1FFE7F7
:1004B00000208DF80F0003E001208DF80F00FFE70A
:1004C000FFE79DF80F0006B07047000082B0019072
:1004D00000910199D1F8000240F00100C1F800023A
:1004E00000980178012000FA01F20199D1F81C026C
:1004F0009043C1F81C020098807B10BBFFE7009876
:100500000178012000FA01F20199D1F80C02904320
:10051000C1F80C02009A1189908840EA01400199C3
:10052000127801EBC201C1F84002009AD1885088CC
:1005300040EA01400199127801EBC201C1F844027E
:10054000FFE70098807B012822D1FFE7009801781F
:10055000012000FA01F20199D1F80C021043C1F810
:100560000C02009A5188908840EA01400199127863
:1005700001EBC201C1F84002009AD188108940EA1B
:1005800001400199127801EBC201C1F84402FFE772
:100590000098407B60B9FFE700980178012000FADD
:1005A00001F20199D1F804029043C1F804020BE072
:1005B00000980178012000FA01F20199D1F80402B3
:1005C0001043C1F80402FFE70098007B60B9FFE721
:1005D00000980178012000FA01F20199D1F8140283
:1005E0009043C1F81402FFE70098007B01280CD16A
:1005F000FFE700980178012000FA01F20199D1F893
:1006000014021043C1F81402FFE700984089012842
:100610000CD1FFE700980178012000FA01F201995E
:10062000D1F81C021043C1F81C02FFE70199D1F870
:10063000000220F00100C1F8000202B07047000083
:1006400081B000900099086820F48030086001B003
:100650007047000080B592B00120069000F048FA83
:10066000BDF8340040F40060ADF83400002005907F
:100670008DF836008DF83800022000908DF8370094
:100680000020C4F2020003900DA9019100F076F859
:10069000039840F61A42C4F2020202924FF400613B
:1006A00011800B210922049200F0E4F8009A0199CC
:1006B0000398059BDDF818C0BDF834E04EF4805E69
:1006C000ADF834E08DF836C08DF838308DF837202D
:1006D00000F054F8029B0398049A4FF4805119805B
:1006E0000C2100F0C7F84FF0007000F00DFA0598EB
:1006F0008DF840008DF83F008DF83E008DF83D00EC
:100700008DF83C008DF841001521ADF8461005210B
:100710008DF843108DF8440046F20040C4F200000A
:100720000790FFF78DFF059A069907988DF824200A
:100730008DF831208DF83210ADF82620ADF8282044
:10074000ADF82A20ADF82C208DF83020ADF82E1011
:1007500009A9FFF7BBFE07980FA9FFF7C9FD08908D
:1007600012B080BD81B00090FFE70098411E00915B
:1007700008B1FFE7F9E701B07047000085B00490C9
:10078000039100200290019000900290FFE70298F0
:100790000F286CD8FFE70299012088400190039848
:1007A000008801990840009000980199884259D129
:1007B000FFE702984100032000FA01F2049908685B
:1007C00090430860039880780299490000FA01F28A
:1007D000049908681043086003988078012805D0C0
:1007E000FFE703988078022827D1FFE702984100AD
:1007F000032000FA01F20499886890438860039806
:10080000C0780299490000FA01F2049988681043FF
:100810008860BDF80810012000FA01F204994868C8
:100820009043486003980079BDF80810884082B270
:100830000499486810434860FFE7BDF8080041008C
:10084000032000FA01F20499C8689043C860039835
:1008500040790299490000FA01F20499C8681043EE
:10086000C860FFE7FFE70298013002908FE705B00C
:100870007047000084B003908DF80B108DF80A20AB
:100880000020019000909DF80B10B0EBD10F1ED10D
:10089000FFE79DF80A009DF80B1001F007018900A1
:1008A000884001909DF80B0000F0070081000F20A8
:1008B00000FA01F20399086A904308620398006AFB
:1008C0000199084300900098039908621DE09DF883
:1008D0000A009DF80B1001F0070189008840019083
:1008E0009DF80B0000F0070081000F2000FA01F2D4
:1008F0000399486A904348620398406A0199084303
:100900000090009803994862FFE704B07047000028
:1009100082B00190ADF80210BDF80220019948693B
:100920005040486102B0704780B584B0082000F0A4
:10093000DFF84FF440500190ADF8080001208DF829
:100940000A0000208DF80C0002208DF80B0040F604
:100950000040C4F2020002A9FFF710FF019840F620
:100960001A41C4F20201088004B080BD81B08DF844
:1009700003009DF8032043F60801C4F20201086851
:1009800002F00F0220F0F00040EA0210086001B00F
:100990007047000081B08DF803009DF8032043F6F6
:1009A0000801C4F20201086802F0070220F4E050D6
:1009B00040EA8220086001B07047000081B08DF8E5
:1009C00003009DF8032043F60801C4F20201086801
:1009D00002F0070220F4604040EA4230086001B0B3
:1009E0007047000081B08DF8030043F60001C4F2A7
:1009F0000201086820F480300860086820F4802034
:100A000008609DF80300012809D1FFE743F60001C3
:100A1000C4F20201086840F48030086012E09DF8DA
:100A2000030002280DD1FFE743F60001C4F20201E2
:100A3000086840F480200860086840F4803008604E
:100A4000FFE7FFE701B0704784B0DDF810C0039006
:100A5000029101928DF80330039A43F60401C4F227
:100A60000201086802F0010220F4800040EA82508E
:100A70000860029A086862F305000860019A086835
:100A80006FF35F2247F6C073984340EA8210086014
:100A90009DF80320086802F0030220F4403040EA89
:100AA00002400860049A086802F00F0220F07060AB
:100AB00040EA0260086004B07047000081B08DF821
:100AC00003009DF8032043F60801C4F20201086800
:100AD00062F30100086001B07047000043F60001B6
:100AE000C4F20201086820F00100086070470000AD
:100AF00081B00090009A43F63001C4F20201086808
:100B00001043086001B0704781B00090009A43F62E
:100B10004001C4F2020108681043086001B0704748
:100B200081B00090009A43F64401C4F202010868C3
:100B30001043086001B0704743F60001C4F202019F
:100B4000086840F0807008607047000080B582B08F
:100B50000120FFF747FFFFE700F032F8012801D03E
:100B6000FFE7F9E768460221019101600120542264
:100B70000023FFF769FFFFF7DFFF0198FFF79EFFF4
:100B8000FFE743F60800C4F202000068C0F38100EA
:100B9000022801D0FFE7F4E7FFF7A0FF0720FFF7E7
:100BA000E5FE0520FFF7F6FE0420FFF707FF4FF4F0
:100BB0008040FFF7B5FF00F0B7F802B080BD00003D
:100BC00082B000200090FFE70098000B042812D8A4
:100BD000FFE743F60000C4F202000068400CC007C3
:100BE00020B1FFE701208DF8070008E0FFE700983B
:100BF00001300090E8E700208DF80700FFE79DF83E
:100C0000070002B07047000081B043F60001C4F253
:100C10000201086840F48030086000200090FFE77F
:100C20000098000B04280FD8FFE743F60000C4F239
:100C300002000068400CC00708B1FFE704E0FFE7CE
:100C4000009801300090EBE743F60000C4F2020088
:100C50000068400CC007002863D0FFE743F640015E
:100C6000C4F20201086840F08050086047F20001B9
:100C7000C4F20001086840F48040086043F60801AF
:100C8000C4F20201086820F0F0000860086804223D
:100C900062F34F3008600868052262F38C20086018
:100CA00043F60401C4F2020145F20840C0F20070AC
:100CB0000860086840F48000086043F60001C4F250
:100CC0000201086840F080700860FFE743F600000A
:100CD000C4F202000068400EC00708B9FFE7F5E75C
:100CE00043F60041C4F2020140F20570086043F689
:100CF0000801C4F20201086820F0030008600868D7
:100D0000022262F301000860FFE743F60800C4F224
:100D100002000068C0F38100022801D0FFE7F4E779
:100D200000E0FFE701B0704786B043F60800C4F268
:100D300002000068C0F3810005900598009040B162
:100D4000FFE7009801280ED0FFE70098022814D092
:100D500059E040F20001C2F2000142F20040C0F24C
:100D6000F400086059E040F20001C2F2000141F2D3
:100D70000020C0F27A0008604FE043F60400C4F29D
:100D800002000168C1F380510291006800F03F0049
:100D90000190029888B9FFE7019942F20040C0F241
:100DA000F400B0FBF1F043F60401C4F2020109685B
:100DB000C1F388114843049010E0019941F20020EA
:100DC000C0F27A00B0FBF1F043F60401C4F2020174
:100DD0000968C1F3881148430490FFE743F6040013
:100DE000C4F202000068C0F30141022000EB4100A0
:100DF000039004980399B0FBF1F040F20001C2F2B5
:100E00000001086009E040F20001C2F2000142F274
:100E10000040C0F2F4000860FFE743F60800C4F2A7
:100E200002000068C0F3031140F61870C0F600001D
:100E3000405C0590059A40F20001C2F2000108688A
:100E4000D040086006B0704780B54EF68851CEF2AB
:100E50000001086840F47000086043F60002C4F224
:100E60000202106840F00100106043F60801C4F26D
:100E700002010020086011684FF6FF73CFF6F66399
:100E80001940116043F60403C4F2020343F2100157
:100E9000C2F200411960116821F48021116043F60B
:100EA0000C01C4F202010860FFF7AEFE4EF60851D5
:100EB000CEF200014FF00060086080BD80B582B0C6
:100EC0000020019000F010F8FFE741F6FF70C0F23B
:100ED0001100FFF747FC40F60040C4F202004FF457
:100EE0004051FFF715FDF0E780B582B0FFF72EFE09
:100EF000FFF71AFDFFF7AEFB019802B080BDF1EEDF
:100F0000100A4FF6FF71C0F2C03120EA010040F034
:100F10004070E1EE100A7047000000000000000081
:100F20000102030406070809480F0008000000201A
:100F300008000000D0010008500F00080800002041
:100F400060060000EC010008007A030A00000000BF
:040000050800019559
:00000001FF
