:020000040800F2
:10000000788C00203D0200084502000847020008E5
:10001000490200084B0200084D02000800000000E1
:100020000000000000000000000000007D02000849
:100030005102000800000000170300082703000811
:10004000570200085702000857020008570200082C
:10005000570200085702000857020008570200081C
:10006000570200085702000857020008570200080C
:1000700057020008570200085702000857020008FC
:1000800057020008570200085702000895050008AB
:1000900041050008750500085702000857020008CE
:1000A00057020008570200085702000857020008CC
:1000B00057020008570200085702000857020008BC
:1000C00057020008570200085702000857020008AC
:1000D000570200085702000857020008570200089C
:1000E000570200085702000857020008570200088C
:1000F000570200085702000857020008570200087C
:10010000570200085702000857020008570200086B
:10011000570200085702000857020008570200085B
:10012000570200085702000857020008570200084B
:10013000570200085702000857020008570200083B
:10014000570200085702000857020008570200082B
:10015000570200085702000857020008570200081B
:1001600009120008E51100085702000857020008AC
:10017000570200085702000857020008000000005C
:10018000000000005702000857020008570200084C
:100190005702000800F002F800F03CF80AA090E8CE
:1001A000000C82448344AAF10107DA4501D100F032
:1001B00031F8AFF2090EBAE80F0013F0010F18BFC3
:1001C000FB1A43F00103184790310000B0310000E2
:1001D000103A24BF78C878C1FAD8520724BF30C873
:1001E00030C144BF04680C60704700000023002445
:1001F00000250026103A28BF78C1FBD8520728BF37
:1002000030C148BF0B6070471FB503F003F81FBD36
:1002100010B510BD00F059F9114603B401F046FEC7
:1002200003BCFFF7F1FF01F0B7FF00F073F903B46F
:10023000FFF7EEFF03BC00F07BF9000009488047A0
:1002400009480047FEE7FEE7FEE7FEE7FEE7FEE7B8
:10025000FEE7FEE7FEE7FEE704480549054A064BD0
:10026000704700006D1D0008950100087886002089
:10027000788C002078880020788800201EF0040FF9
:100280000CBFEFF30880EFF30980816911F8021CBD
:10029000002932D101B590E80F10E047BDE80050C9
:1002A000CCF80000244B93E80600914208BF704749
:1002B0001A6041B91EF0100F10D1204B186820F0C1
:1002C000010018600AE02CE9F00F1EF0100F08BFC3
:1002D0002CED108A81F822E0C1F838C0906B92F8BA
:1002E000221061F0FF0E1EF0100F08BFB0EC108A54
:1002F000B0E8F00F80F309887047114A13689942FB
:10030000FAD801B552F821C00FC8E047BDE8005047
:10031000CCF80000704701B502F008FABDE80140D2
:10032000EFF3098CBEE701B502F0CCFBBDE801405C
:10033000EFF3098CB6E700BF1800002034EF00E0AF
:10034000E8320008032A40F2308010F0030C00F07D
:10035000158011F8013BBCF1020F624498BF11F8FF
:1003600001CB00F8013B38BF11F8013BA2F10402B8
:1003700098BF00F801CB38BF00F8013B11F0030330
:1003800000F07180083AC0F0088051F8043B083A48
:1003900051F804CBA0E80810F5E7121D5CBF51F836
:1003A000043B40F8043BAFF30080D20724BF11F8B0
:1003B000013B11F801CB48BF11F8012B24BF00F815
:1003C000013B00F801CB48BF00F8012B70474FF00C
:1003D00000020429C0F0128010F0030C00F01B8012
:1003E000CCF1040CBCF1020F18BF00F8012BA8BF20
:1003F00020F8022BA1EB0C0100F00DB85FEAC17CE4
:1004000024BF00F8012B00F8012B48BF00F8012B96
:1004100070474FF0000200B51346944696462039C7
:1004200022BFA0E80C50A0E80C50B1F12001BFF4AD
:10043000F7AF090728BFA0E80C5048BF0CC05DF813
:1004400004EB890028BF40F8042B08BF704748BF61
:1004500020F8022B11F0804F18BF00F8012B7047D5
:1004600070477047704710B5203AC0F00B80B1E874
:100470001850A0E81850B1E81850A0E81850203AD9
:10048000BFF4F5AF5FEA027C24BFB1E81850A0E8E2
:10049000185044BF18C918C0BDE810405FEA827CFC
:1004A00024BF51F8043B40F8043B08BF7047D20713
:1004B00028BF31F8023B48BF11F8012B28BF20F8B4
:1004C000023B48BF00F8012B7047754600F02CF83E
:1004D000AE4605006946534620F00700854618B031
:1004E00020B5FFF7B9FEBDE820404FF000064FF001
:1004F00000074FF000084FF0000BAC46ACE8C00915
:10050000ACE8C009ACE8C009ACE8C00921F00701BB
:100510008D46704710B50446AFF300802046BDE815
:100520001040FFF784BE000000487047A80000207C
:1005300001491820ABBEFEE726000200704700000C
:1005400080B58AB046F20040C4F20000019000215C
:10055000029103AA00F0CAFB0198029900F088FBFF
:1005600040F60040C4F202004FF4005100F02EFEAD
:100570000AB080BD80B540F60040C4F202004FF4DE
:10058000005100F023FE4FF6FF70C0F20F0000F0A4
:10059000F7FC80BD80B56FF07F4000F0F1FC80BDBE
:1005A00086B00590049100208DF80F000290059907
:1005B000086820F0020008600599086840F0010012
:1005C0000860FFE7059841680020C907019041B91C
:1005D000FFE702984FF6FF71401A18BF0120019003
:1005E000FFE70198C00720B1FFE7029801300290B1
:1005F000E8E705984068C00720B9FFE700208DF8BC
:100600000F00B6E004980078012806D1FFE70599AD
:10061000086840F04000086005E00599086820F08F
:1006200040000860FFE704984078012806D1FFE702
:100630000599086840F02000086005E00599086801
:1006400020F020000860FFE704988078012806D198
:10065000FFE70599086840F01000086005E005997B
:10066000086820F010000860FFE70498C0780128AF
:1006700006D1FFE70599086840F00800086005E02A
:100680000599086820F008000860FFE704980079E1
:10069000012806D1FFE70599086840F004000860CA
:1006A00005E00599086820F004000860FFE7059957
:1006B000C86920F04040C861049842790599C8692A
:1006C00040EA8270C861049882790599C86902F08D
:1006D000030220F0407040EA0260C8610498C279C9
:1006E0000599C86902F00F0220F4702040EA024028
:1006F000C8610498027A0599C86902F0070220F4DB
:10070000E00040EA0250C86104984089421E059901
:10071000C86962F30900C8610599086820F0010002
:10072000086000200290FFE7059841680020C90793
:10073000009041B1FFE702984FF6FF71401A18BFD1
:1007400001200090FFE70098C00720B1FFE7029862
:1007500001300290E8E705984068C00720B1FFE744
:1007600000208DF80F0003E001208DF80F00FFE757
:10077000FFE79DF80F0006B07047000082B00190BF
:1007800000910199D1F8000240F00100C1F8000287
:1007900000980178012000FA01F20199D1F81C02B9
:1007A0009043C1F81C020098807B10BBFFE70098C3
:1007B0000178012000FA01F20199D1F80C0290436E
:1007C000C1F80C02009A1189908840EA0140019911
:1007D000127801EBC201C1F84002009AD18850881A
:1007E00040EA01400199127801EBC201C1F84402CC
:1007F000FFE70098807B012822D1FFE7009801786D
:10080000012000FA01F20199D1F80C021043C1F85D
:100810000C02009A5188908840EA014001991278B0
:1008200001EBC201C1F84002009AD188108940EA68
:1008300001400199127801EBC201C1F84402FFE7BF
:100840000098407B60B9FFE700980178012000FA2A
:1008500001F20199D1F804029043C1F804020BE0BF
:1008600000980178012000FA01F20199D1F8040200
:100870001043C1F80402FFE70098007B60B9FFE76E
:1008800000980178012000FA01F20199D1F81402D0
:100890009043C1F81402FFE70098007B01280CD1B7
:1008A000FFE700980178012000FA01F20199D1F8E0
:1008B00014021043C1F81402FFE700984089012890
:1008C0000CD1FFE700980178012000FA01F20199AC
:1008D000D1F81C021043C1F81C02FFE70199D1F8BE
:1008E000000220F00100C1F8000202B070470000D1
:1008F00081B000900099002008700099487000991C
:1009000088700099C8700099087100994871009921
:10091000887100990320C87100990220087200991B
:100920000120488101B0704781B0009000990868AB
:1009300020F48030086001B07047000080B59AB0A4
:100940000420069000F07AFF0220039000F076FF6A
:1009500040F20040C4F202000290082108910922EE
:10096000019200F095FB019A0298114600F090FB6D
:10097000029803994FF48072ADF860208DF86310EF
:10098000002107918DF8621001210A918DF8651000
:1009900018A9049100F000FB0298DDF80CC004993E
:1009A000079B0A9A4FF4007EADF860E08DF863C0B3
:1009B0008DF862C08DF864308DF8652000F0ECFA97
:1009C000039A0499069B0A98ADF860308DF863206D
:1009D0008DF8620040F60000C4F20200059000F0BD
:1009E000DBFA0598069900F0DDFB4FF0007000F08F
:1009F00031FF4FF6FF70C0F20F0000F0C1FA46F26F
:100A00000040C4F200000B9000F048F90B98FFF78B
:100A10008BFF15A80990FFF76BFF079A0B980A99AF
:100A200003238DF859308DF85A201523ADF85E3028
:100A300005238DF85B308DF85C208DF854208DF8FF
:100A400055208DF856208DF857208DF858200368D2
:100A500023F0010303608DF844208DF851208DF8B8
:100A60005210ADF84620ADF84820ADF84A20ADF858
:100A70004C208DF85020ADF84E1011A9FFF77EFEE6
:100A8000079A08990B9813230C930D928DF8382030
:100A90008DF839208DF83A10F1218DF83B100CA912
:100AA00000F0CEF9099902460B9840F21413C2F2F5
:100AB00000031A60FFF774FD0A9902460B9840F292
:100AC0001013C2F200031A6000F008F840F20C1193
:100AD000C2F2000108601AB080BD000086B0059027
:100AE0008DF8131000208DF812004FF6FF70039060
:100AF0009DF81300C0BBFFE70599086820F00200CD
:100B000008600599086840F001000860FFE7059853
:100B100041680020C907029071B9FFE70598406855
:100B200041080020C907029031B1FFE7039800286F
:100B300018BF01200290FFE70298C00720B1FFE72D
:100B4000039801380390E2E705984068C00750B168
:100B5000FFE7059840684008C00720B9FFE701207B
:100B60008DF81200FFE77FE09DF81300012839D1CE
:100B7000FFE70599086820F00200086005990868F9
:100B800020F0010008604FF6FF700390FFE7059822
:100B90004068C00740B9FFE7059840684108002059
:100BA000C907019031B1FFE70398002818BF012061
:100BB0000190FFE70198C00720B1FFE703980138D3
:100BC0000390E4E705984068C00730B1FFE7059857
:100BD00040684008C00720B9FFE701208DF81200E7
:100BE000FFE740E09DF8130002283BD1FFE705999D
:100BF000086840F0020008600599086820F00100CC
:100C000008604FF6FF700390FFE7059841680020E9
:100C1000C907009071B1FFE70598406841080020BE
:100C2000C907009031B9FFE70398002818BF0120D9
:100C30000090FFE70098C00720B1FFE70398013854
:100C40000390E2E705984068C00750B9FFE70598B0
:100C500040684008C00720B1FFE701208DF812006E
:100C6000FFE7FFE7FFE7FFE79DF8120006B07047D8
:100C700082B001908DF803109DF8030030B9FFE7B2
:100C80000199C86840F02000C86005E00199086932
:100C900040F020000861FFE702B0704780B584B0E3
:100CA0000390039846F20041C4F20001884209D142
:100CB000FFE74FF00070029000F0D8FD029800F0BE
:100CC000A7FD11E0039846F60001C4F20001884236
:100CD00009D1FFE74FF08060019000F0C7FD019857
:100CE00000F096FDFFE7FFE704B080BD83B00290FF
:100CF0008DF80710009202989DF8071000EB011084
:100D0000D0F8B00100F00400009988600098806875
:100D100058B9FFE702989DF8071000EB0110D0F8D2
:100D2000B001400D009908600AE002989DF8071094
:100D300000EB0110D0F8B001C00800994860FFE74F
:100D400002989DF8071000EB0110D0F8B001C0F335
:100D500040000099C86002989DF8071000EB011050
:100D6000D0F8B40100F00F000099087402989DF8C3
:100D7000071000EB0110D0F8B401000A0099487682
:100D800002989DF8071000EB0110D0F8B801009907
:100D9000487402989DF8071000EB0110D0F8B801D4
:100DA000000A0099887402989DF8071000EB011062
:100DB000D0F8B801000C0099C87402989DF807108B
:100DC00000EB0110D0F8B801000E009908750298E8
:100DD0009DF8071000EB0110D0F8BC010099487590
:100DE00002989DF8071000EB0110D0F8BC01000A32
:100DF0000099887502989DF8071000EB0110D0F853
:100E0000BC01000C0099C87502989DF8071000EB12
:100E10000110D0F8BC01000E009908769DF807007B
:100E200030B9FFE70299C86840F02000C86005E0CB
:100E30000299086940F020000861FFE703B070479D
:100E400084B00290019100208DF803000298806820
:100E50004001002804D5FFE700208DF8030019E0C9
:100E6000029880680001002804D5FFE701208DF872
:100E700003000EE002988068C000002804D5FFE758
:100E800002208DF8030003E003208DF80F0073E0CB
:100E9000FFE7FFE702989DF8031000EB0111D1F87E
:100EA000800100F00100C1F880010198007A80B94A
:100EB000FFE701980168407A40EA415202989DF8A4
:100EC000031000EB0111D1F880011043C1F880013B
:100ED00012E001994A68087A40EAC200497A40EA79
:100EE000010202989DF8031000EB0111D1F8800176
:100EF0001043C1F88001FFE70199887A00F00F00E4
:100F0000887202989DF8031000EB0111D1F884015A
:100F100020F00F00C1F884010198827A02989DF8B0
:100F2000031000EB0111D1F884011043C1F88401D2
:100F30000198D0F80B0002999DF8032001EB0211F3
:100F4000C1F888010198D0F80F0002999DF803209C
:100F500001EB0211C1F88C0102989DF8031000EB1F
:100F60000111D1F8800140F00100C1F880019DF825
:100F700003008DF80F00FFE79DF80F0004B07047E5
:100F800081B00090FFE70098411E009108B1FFE793
:100F9000F9E701B07047000085B00490039100208C
:100FA0000290019000900290FFE702980F286CD801
:100FB000FFE7029901208840019003980088019979
:100FC0000840009000980199884259D1FFE70298A3
:100FD0004100032000FA01F2049908689043086078
:100FE000039880780299490000FA01F20499086890
:100FF0001043086003988078012805D0FFE7039824
:101000008078022827D1FFE702984100032000FAE8
:1010100001F204998868904388600398C078029927
:10102000490000FA01F20499886810438860BDF80D
:101030000810012000FA01F20499486890434860C2
:1010400003980079BDF80810884082B20499486876
:1010500010434860FFE7BDF808004100032000FA94
:1010600001F20499C8689043C860039840790299D6
:10107000490000FA01F20499C8681043C860FFE70C
:10108000FFE70298013002908FE705B0704700003B
:1010900084B003908DF80B108DF80A200020019089
:1010A00000909DF80B10B0EBD10F1ED1FFE79DF81B
:1010B0000A009DF80B1001F007018900884001909B
:1010C0009DF80B0000F0070081000F2000FA01F2EC
:1010D0000399086A904308620398006A01990843DB
:1010E00000900098039908621DE09DF80A009DF8A1
:1010F0000B1001F007018900884001909DF80B005A
:1011000000F0070081000F2000FA01F20399486AFD
:10111000904348620398406A019908430090009800
:1011200003994862FFE704B07047000010B588B02B
:10113000082000F083FB4FF440500590ADF81800F4
:10114000012000908DF81A00002001908DF81C00FD
:10115000022002908DF81B0040F60040C4F202000D
:10116000039006A90491FFF717FFDDF800C0019B6B
:10117000029A03980499DDF814E040F61A44C4F288
:101180000204A4F800E04FF4004EADF818E08DF82A
:101190001AC08DF81C308DF81B20FFF7FDFE08B03B
:1011A00010BD000082B00190ADF80210BDF8020041
:1011B0000199488302B0704782B00190ADF80210E7
:1011C000BDF802000199088302B0704782B0019017
:1011D000ADF80210BDF802200199486950404861FD
:1011E00002B0704780B500F019F840F20811C2F261
:1011F00000010120087040F60040C4F202004FF4E4
:101200000051FFF7E3FF80BD80B540F60040C4F217
:1012100002004FF40051FFF7D9FF80BD80B586B0C2
:1012200045F60041C4F200010191086840F4004015
:101230000860FF20FFF7A4FE0198016821F4004137
:10124000016000218DF80C104BF6FF72ADF80E20F6
:10125000ADF8101001218DF8121048F2A061C0F213
:101260000101029102A900F025F806B080BD00003E
:1012700045F61441C4F20001086820F400400860FB
:10128000086820F480400860086820F480500860F6
:10129000086820F400600860086820F48060086036
:1012A000086820F400700860086820F48070086006
:1012B0007047000080B586B0059004910020ADF81D
:1012C0000E00ADF80C0041F20021C0F27A0102914B
:1012D00001900420ADF8020002A801A900F060FB13
:1012E00002984DF68361C4F21B31A0FB0110800C03
:1012F000ADF80C00BDF80C200599486862F30500B4
:1013000048600599086820F00100086004980068AA
:1013100048F2A061C0F2010188421ED8FFE702989E
:10132000049909684900B0FBF1F0ADF80200BDF87E
:101330000200032804DCFFE70420ADF80200FFE709
:10134000BDF80C00013005990862BDF80210BDF827
:101350000E000843ADF80E0046E00498C0884BF636
:10136000FF7188420AD1FFE702980499096801EBEE
:101370004101B0FBF1F0ADF802000FE002980499D2
:10138000096819225143B0FBF1F0ADF80200BDF835
:10139000020040F48040ADF80200FFE7BDF8020013
:1013A000000538B9FFE7BDF8020040F00100ADF8D4
:1013B0000200FFE7BDF80200BDF80E10084340F43C
:1013C0000040ADF80E00BDF80C004FF49671484394
:1013D00044F6D351C1F26201A0FB0101012000EBF0
:1013E000911005990862FFE7BDF80E000599C861E4
:1013F0000599086840F0010008600599086820F424
:10140000806008600599086820F008000860059968
:10141000086820F0020008600498027905990868BD
:10142000104308600498827A0599086802F0010266
:1014300020F4806040EA8220086004998889098944
:1014400008430599886006B080BD000081B0009017
:101450000099086840F00100086001B07047000082
:1014600080B584B00390039845F20041C4F20001B6
:10147000884209D1FFE74FF40010029000F0F6F91E
:10148000029800F0C5F923E0039845F60001C4F284
:101490000001884209D1FFE74FF48000019000F07D
:1014A000E5F9019800F0B4F911E0039845F6004120
:1014B000C4F20001884209D1FFE74FF40000009018
:1014C00000F0D4F9009800F0A3F9FFE7FFE7FFE789
:1014D00004B080BD80B586B001F0A2FB00F002FE32
:1014E00045F60040C4F200000190FFF7B9FF0198F3
:1014F00000218DF80C104BF6FF72ADF80E20ADF800
:10150000101001218DF812104FF48041ADF8141025
:1015100048F2A061C0F20101029102A9FFF7CAFEE0
:101520000198FFF793FFFFF7A3FE06B080BD000010
:1015300062B6704710B500F1280151E8002F12B9CA
:10154000BFF32F8F04E0531E41E8003404B1F4E7E9
:1015500072B12C300121006850B1821CD2E84F3F9B
:10156000C2E8441F04B1F9E71A0602D00830F2E7D6
:10157000002010BD70B5024652F8305F4DB1CC78F6
:1015800000235DB12E46ED78A5420DD27568334635
:10159000F7E70023C162C1E901330DE00024C1E98E
:1015A000014300F12C0403E0C1E9016306F10804E2
:1015B0002160002B18BF1A1D1160283050E8001F51
:1015C0004A1C40E8002303B1F8E770BDD1E90123CC
:1015D00012B193608B6800E0C362191D002B08BF35
:1015E00000F130010A60704701480068704700BF91
:1015F00010E000E02168D4E90223204600F0EEBFAD
:10160000002100220646002701F044BA204601F0DE
:10161000CFB9000080B582B08DF807009DF80700B3
:101620000146009120B1FFE70098012803D005E0B2
:1016300000F006F802E000F00DF8FFE702B080BD10
:1016400080B540F60040C4F202004FF40041FFF7BD
:10165000A9FD80BD80B540F60040C4F202004FF401
:101660000041FFF7A9FD80BD81B08DF803009DF812
:10167000032043F60801C4F20201086802F00F02D9
:1016800020F0F00040EA0210086001B0704700004E
:1016900081B08DF803009DF8032043F60801C4F2E1
:1016A0000201086802F0070220F4E05040EA8220BC
:1016B000086001B07047000081B08DF803009DF80C
:1016C000032043F60801C4F20201086802F0070291
:1016D00020F4604040EA4230086001B070470000EA
:1016E00081B08DF8030043F60001C4F202010868DE
:1016F00020F480300860086820F4802008609DF89D
:101700000300012809D1FFE743F60001C4F20201FA
:10171000086840F48030086012E09DF80300022859
:101720000DD1FFE743F60001C4F20201086840F45E
:1017300080200860086840F480300860FFE7FFE719
:1017400001B0704784B0DDF810C00390029101929F
:101750008DF80330039A43F60401C4F202010868CD
:1017600002F0010220F4800040EA82500860029AF0
:10177000086862F305000860019A08686FF35F2249
:1017800047F6C073984340EA821008609DF8032032
:10179000086802F0030220F4403040EA024008608A
:1017A000049A086802F00F0220F0706040EA0260BC
:1017B000086004B07047000082B001900091019A67
:1017C00043F68401C4F2020108686FF35F2247F612
:1017D000C073984340EA82100860009A086802F0DB
:1017E000070220F0E04040EA0270086002B0704753
:1017F00081B08DF803009DF8032043F60801C4F280
:101800000201086862F30100086001B0704700003F
:1018100081B00090009A43F62001C4F202010868EA
:101820009043086001B0704743F60001C4F2020122
:10183000086820F0010008607047000081B0009047
:10184000009A43F63001C4F20201086810430860B0
:1018500001B0704781B00090009A43F64001C4F295
:10186000020108681043086001B0704781B0009021
:10187000009A43F62001C4F2020108681043086090
:1018800001B0704781B00090009A43F64401C4F261
:10189000020108681043086001B0704743F6000178
:1018A000C4F20201086840F08070086070470000D0
:1018B00043F60001C4F20201086840F0806008604D
:1018C0007047000080B582B00120FFF709FFFFE7F5
:1018D00000F008F9012801D0FFE7F9E76946042084
:1018E000086001200821A8220023FFF72BFF4FF4F6
:1018F000C07002210191FFF75FFFFFF7CFFFFFF7F5
:10190000D7FF0198FFF774FF43F60801C4F2020104
:10191000086820F400000860FFE743F60800C4F2FE
:1019200002000068C0F38100022801D0FFE7F4E75D
:10193000FFF77AFF0720FFF797FE0420FFF7A8FEC6
:101940000320FFF7B9FE4FF48040FFF79BFF00F044
:101950007DF902B080BD000080B588B040F206700D
:10196000C0F60810049040F20120C0F2034003903A
:1019700000200290019000F049F8069043F608001C
:10198000C4F202000068C0F3031101A8405C079094
:1019900006980799C8400590059808B080BD0000DA
:1019A00080B586B00590049140F20120C0F203405A
:1019B000019000200090FFF7CFFF0390059880B1C1
:1019C000FFE743F60800C4F202000068C0F382217A
:1019D0006846405C029003980299C84005990860E7
:1019E000FFE7049880B1FFE743F60800C4F2020065
:1019F0000068C0F342316846405C02900398029947
:101A0000C84004990860FFE706B080BD85B043F682
:101A10000800C4F202000068C0F38100049004983A
:101A2000009040B1FFE7009801280AD0FFE7009836
:101A300002280CD04CE042F20040C0F2F4000490C6
:101A40004CE041F20020C0F27A00049046E043F6F8
:101A50000400C4F20200016801F03F010391006834
:101A6000C0F3805002900298012811D1FFE703993A
:101A700041F20020C0F27A00B0FBF1F043F604011D
:101A8000C4F202010968C1F388114843019010E0D3
:101A9000039942F20040C0F2F400B0FBF1F043F6CB
:101AA0000401C4F202010968C1F38811484301909E
:101AB000FFE7019843F60401C4F202010968C1F38B
:101AC0000142022101EB4201B0FBF1F0049005E07C
:101AD00042F20040C0F2F4000490FFE7049805B021
:101AE0007047000082B000200090FFE70098000BD4
:101AF000042812D8FFE743F60000C4F20200006891
:101B0000400CC00720B1FFE701208DF8070008E076
:101B1000FFE7009801300090E8E700208DF807000B
:101B2000FFE79DF8070002B07047000081B043F660
:101B30000001C4F20201086840F48030086000200F
:101B40000090FFE70098000B04280FD8FFE743F64A
:101B50000000C4F202000068400CC00708B1FFE7B3
:101B600004E0FFE7009801300090EBE743F6000047
:101B7000C4F202000068400CC007002863D0FFE7F1
:101B800043F64001C4F20201086840F0805008604A
:101B900047F20001C4F20001086840F48040086088
:101BA00043F60801C4F20201086820F0F000086062
:101BB0000868042262F34F3008600868052262F367
:101BC0008C20086043F60401C4F2020145F208408B
:101BD000C0F200700860086840F48000086043F6B6
:101BE0000001C4F20201086840F080700860FFE75D
:101BF00043F60000C4F202000068400EC00708B9B6
:101C0000FFE7F5E743F60041C4F2020140F2057038
:101C1000086043F60801C4F20201086820F00300DE
:101C200008600868022262F301000860FFE743F6DB
:101C30000800C4F202000068C0F38100022801D04D
:101C4000FFE7F4E700E0FFE701B0704786B043F636
:101C50000800C4F202000068C0F3810005900598F6
:101C6000009040B1FFE7009801280ED0FFE70098F0
:101C7000022814D059E040F20001C2F2000142F201
:101C80000040C0F2F400086059E040F20001C2F2E6
:101C9000000141F20020C0F27A0008604FE043F6F4
:101CA0000400C4F202000168C1F38051029100688F
:101CB00000F03F000190029888B9FFE7019942F2D5
:101CC0000040C0F2F400B0FBF1F043F60401C4F2AE
:101CD00002010968C1F388114843049010E001999A
:101CE00041F20020C0F27A00B0FBF1F043F60401AB
:101CF000C4F202010968C1F3881148430490FFE768
:101D000043F60400C4F202000068C0F3014102205F
:101D100000EB4100039004980399B0FBF1F040F20E
:101D20000001C2F20001086009E040F20001C2F2C5
:101D3000000142F20040C0F2F4000860FFE743F601
:101D40000800C4F202000068C0F3031143F2D82077
:101D5000C0F60000405C0590059A40F20001C2F216
:101D600000010868D040086006B0704780B54EF6A4
:101D70008851CEF20001086840F47000086043F614
:101D80000002C4F20202106840F00100106043F645
:101D90000801C4F202010020086011684FF6FF73C9
:101DA000CFF6F6631940116043F60403C4F2020350
:101DB00043F21001C2F200411960116821F4802140
:101DC000116043F60C01C4F202010860FFF7AEFE99
:101DD0004EF60851CEF200014FF00060086080BD61
:101DE000B0B5104A0023443215462C683CB1256931
:101DF000A94209D3491B04F10C052346F5E7002449
:101E00000161C0E9023406E00161C0E90234A0606A
:101E10002569691A2161002B18BF03F10C021060BB
:101E2000B0BD00BF0400002080B582B0019000F07A
:101E3000DBFE38B1FFE7019800684FF0FF3100F09A
:101E4000B7FAFFE702B080BD80B582B0019001987B
:101E5000006800F0BFFA02B080BD000080B582B01B
:101E60000190002000F0C8FA01990860019800680C
:101E700018B1FFE70120009006E0002000900199D2
:101E8000052000F0F4FAFFE7009802B080BD0000E2
:101E900080B582B0019000F0A7FE28B1FFE701985D
:101EA000006800F0BBFAFFE702B080BD80B500F02B
:101EB000F1F980BD80B582B08DF806008DF805106F
:101EC00040F21811C2F200014FF47A600860FFE797
:101ED00045F61840C4F2000000684008C00770B121
:101EE000FFE740F21812C2F200021068411E1160B2
:101EF00020B9FFE701208DF80700EEE0E8E745F69E
:101F00000041C4F20001086840F48070086045F6A2
:101F10001440C4F200000068FFE745F61440C4F224
:101F200000000068C00708B9FFE7F6E79DF8060063
:101F3000400045F61041C4F20001086040F218115B
:101F4000C2F200014FF47A600860FFE745F61440E2
:101F5000C4F2000000684008C00770B9FFE740F213
:101F60001812C2F200021068411E116020B9FFE78A
:101F700001208DF80700B0E0E8E745F61440C4F210
:101F80000000006845F61840C4F20000006840F206
:101F90001811C2F200014FF47A600860FFE745F6BD
:101FA0001440C4F200000068C009C00770B9FFE720
:101FB00040F21812C2F200021068411E116020B9EE
:101FC000FFE701208DF8070087E0E8E79DF80500AE
:101FD00045F61041C4F20001086045F60041C4F224
:101FE0000001086840F480700860FFE745F614407F
:101FF000C4F200000068C00708B9FFE7F6E79DF8E3
:1020000006004000013045F61041C4F200010860AE
:1020100040F21811C2F200014FF47A600860FFE745
:1020200045F61440C4F2000000684008C00770B9CB
:10203000FFE740F21812C2F200021068411E116060
:1020400020B9FFE701208DF8070046E0E8E745F6F4
:102050000041C4F20001086820F48060086045F681
:102060001840C4F20000006840F21811C2F20001EA
:102070004FF47A600860FFE745F61440C4F20000B0
:1020800000688009C00770B9FFE740F21812C2F279
:1020900000021068411E116020B9FFE701208DF891
:1020A00007001AE0E8E745F61040C4F200000068B7
:1020B0008DF8040045F60041C4F20001086840F4C0
:1020C00000700860086840F480600860FFF7D0F88E
:1020D0009DF804008DF80700FFE79DF8070002B0A7
:1020E00080BD000080B584B001200190FFF7A6FB01
:1020F00004200390FFF7A2FBDDF804C0039A002040
:10210000C4F2020001684FF0020E6EF3114101604B
:1021100040F60003C4F20203029319686EF3934180
:1021200019600423C4F20203196841F48071196034
:1021300040F60403C4F20203196841F40071196007
:102140000823C4F20203196841F44031196040F6D3
:102150000803C4F20203196841F4402119600C23FA
:10216000C4F2020319686CF31141196040F60C03C4
:10217000C4F2020319686CF3934119600821FEF759
:1021800087FF0298039A0921FEF782FF4FF40000AF
:10219000FFF760FB04B080BD80B58AB000200490DA
:1021A000099000F04FF80120FFF734FAFFF760F8CC
:1021B0006FF07F400390FEF7E3FEFFF7CDFB089042
:1021C000FFF724FC0146039807919DF8181041F091
:1021D00080018DF818109DF8181001F0F0010531FC
:1021E0008DF818109DF8181001F08F018DF8171058
:1021F000FEF7C6FE04988DF81600FFE740F6004093
:10220000C4F202004FF48051FEF7E0FF6FF07F4010
:102210000190FEF7B5FE122000210291FFF74AFE61
:102220000146019840F21C12C2F200021170FEF742
:10223000A7FE02988DF816009DF8160001308DF863
:102240001600DBE780B582B0FFF73CFBFEF76EFFC0
:10225000FEF774FBFFF76CF9FFF73CF9019802B049
:1022600080BD0000EFF3058048B9EFF3108030B96E
:10227000EFF3118018B9EFF31480C00702D10448BE
:10228000007A7047DFF804C000DF7047252C000893
:102290000400002080B500F0ECF8EFF3058028B9C9
:1022A000EFF3108010B9EFF3118010B16FF005005B
:1022B00080BDDFF808C000DF80BD00BF312C000802
:1022C000F8B50546EFF3058014460E4628B9EFF33E
:1022D000108010B9EFF31180F0B1D5B12878FA2849
:1022E00017D16FF00300EEB1E3B92846FFF722F9EA
:1022F000C8B16A6A074600F10C013046FEF722F8C1
:102300000CB1F87820703846FD6000F053FA0020D8
:10231000F8BD6FF00300F8BD2846DFF810C0314665
:10232000224600DFF8BD6FF00200F8BD312D000835
:102330002DE9F0410646EFF3058090460D4628B999
:10234000EFF3108010B9EFF3118018B3EEB13078CD
:10235000FA281AD16FF00307CDB1C3B906F10C000A
:1023600000F0FAF8F0B1726A04460C302946FDF725
:10237000E9FFF9200027C4E9015684F803802070A2
:102380002046A77000F016FA01E06FF00307384608
:10239000BDE8F0813046DFF814C02946424600DF30
:1023A000BDE8F0816FF00207F1E700BF152F0008CC
:1023B000EFF305822AB9EFF3108212B9EFF311821D
:1023C00012B16FF005007047DFF804C000DF7047FE
:1023D000C12F0008EFF3058129B9EFF3108111B97E
:1023E000EFF3118111B16FF005007047DFF804C001
:1023F00000DF70474D300008EFF3058129B9EFF396
:10240000108111B9EFF3118109B100207047DFF895
:1024100008C000DF704700BFF9300008EFF3058106
:1024200029B9EFF3108111B9EFF3118111B16FF0F8
:1024300005007047DFF804C000DF70476131000815
:1024400083B002900191029801380146009104285E
:102450000AD80099DFE801F003040506070004E04C
:1024600003E002E001E000E0FFE7FFE7FEE7FFF73F
:10247000E7BF7047F0B5A8B1002379B3032A2DD880
:1024800003460F3153F8085F21F007012C46EE1A7E
:102490005D6825F00307F61B8E4205D225682346AA
:1024A000002DF3D1002319E0D0E900760E444660F8
:1024B000384450F8047CB74202D2083846605D6860
:1024C00045B125F003001143C45018441860034679
:1024D000416002E041EA0200586008331846F0BD4E
:1024E000B0B560B159B100F10804A1F108020023B0
:1024F000944206D0254624682B46002CF8D10020B3
:10250000B0BD51F8045C446825F00305641B4460C9
:1025100013B11068186002E0002041F8040C01209B
:10252000B0BD18B102460843400701D000207047F3
:10253000002018290FD310B58B18A3F1080494605C
:1025400043F8080C10249368C2E900145C60D06062
:102550000120BDE81040704710B5002817D0014693
:1025600000F1140252E8000F10B9BFF32F8F04E0FE
:10257000036842E8003404B1F4E740B1043151E8A3
:10258000002F531C41E8003404B1F8E710BD0020CF
:1025900010BDB0B500281ED0C2688A421BD802699F
:1025A0008A4218D900F1140213680B60BFF35F8FE1
:1025B00052E8003F0C689C42F6D142E8001505B194
:1025C000F2E7043050E8001F4A1E40E8002303B140
:1025D000F8E70020B0BD6FF00300B0BDB0B598B112
:1025E00091B18AB1044600209BB1C4E9001004F106
:1025F000080002FB013563612CC0481E30B19918F8
:10260000013819600B46F9E70020B0BD00201860C2
:102610000120B0BDF8B50446807848B3E56821468E
:102620002846FEF7D3FF002005F10C062146207056
:102630003046FFF7AEFFA868C8B13046FFF78CFF01
:10264000A8B10446284600F0B3F9FEF7D9FF30469A
:1026500000F0F2F941686A6A064604F10C00FDF7E1
:1026600071FEF920A7702070B068E07021E0F8BD1D
:10267000A568A868E8B1407883281AD1284600F0F8
:1026800097F9FEF7BDFF304600F0D6F906464068E0
:102690006A6A04F10C01FDF755FEB06808B1E178F3
:1026A0000170277005F10C002146BDE8F840FFF7E6
:1026B00070BF28462146BDE8F840FEF75BBF00002A
:1026C00080B507480821D0E91A2000F097FBF049AF
:1026D000C8640021002808BF4FF0FF31084680BDC4
:1026E00030320008B0B5C278920718D5C068C36A06
:1026F00090F82120DC78A4070AD59C688C4208BF9A
:102700008C682CB194F9204055B2AC42C8BFE2B2FB
:102710005B69002BEED190F82010914200D1B0BD42
:1027200080F82020BDE8B04000F06BB970B5D84CFF
:1027300004F1560504F15A06B4F85400D5E85F1FB9
:1027400011B9BFF32F8F04E04A1EC5E8532F03B120
:10275000F4E7090429D0D6E85F1F4A1C904200D84C
:102760000022C6E8532F03B1F5E788B2E16D51F8B6
:102770002000D0B10178F1390829DDD8DFE801F077
:1027800006050905050C0F051200D5E7216E8847DF
:10279000D2E7616E8847CFE7A16E8847CCE7E16E4C
:1027A0008847C9E7216F8847C6E70020BDE8704029
:1027B00000F0D6B870B50146E54800F15603B0F810
:1027C0005420D3E85F4FA24202D8BFF32F8F04E01A
:1027D000651CC3E8565F06B1F3E7A3B2934214D277
:1027E00000F15803D3E85F4F651CAA4200D80025CA
:1027F000C3E8565F06B1F5E7A2B2C36D43F82210F5
:10280000417A39B10121817270BD0220BDE870406A
:10281000FFF72DBE02484FF08051016070BD00BF30
:1028200004ED00E010B5012190F920304170ED4930
:102830001C310A46896841B191F920409C42F8DC7C
:10284000C0E9021290600C3104E00021C0E90212DC
:1028500002F10801086010BDB0B54A1C0DD0F34A62
:1028600000232C3215462C68E4B1E569A94221D336
:10287000491B04F110052346F5E7EC49002301F15B
:10288000300214461946236803F11004002BF9D1D5
:102890004FF0FF33C3610023C0E90431C1B101F13E
:1028A000100215E0C161C0E90443002B18BF03F119
:1028B00010020DE0002BC0E90443C16118BF03F111
:1028C000100210602CB1E269511A04F11402E161A6
:1028D0001060B0BDC2690169531C0AD021B14369BF
:1028E0004B61CB691A44CA6142693AB9CF4AD16295
:1028F00007E009B142694A6142692AB100231161C6
:1029000043610021C1617047C84A1163F9E700BF04
:1029100070B5C64DEC6A1CB1E0690138E06100D0C9
:1029200070BD042660781338B6EB301F08D12046FE
:102930000178F12901D1C068FAE72146FFF7D2FEFC
:10294000204600F054F8204600F06EF8246924B1C7
:10295000E0690028E6D000206061EC6270BD00BF35
:1029600070B5F04E05467469307A65B1022805D11C
:1029700094F9200095F92010814211DC2846BDE829
:10298000704000F051B8022810D1756A75B194F901
:10299000200095F92010814208DD284600F027F834
:1029A0002046FFF73FFF0220B561687070BD00BF91
:1029B0000146806882688A6002B1D1600021C160EE
:1029C000704710B591F920300246806840B190F907
:1029D00020409C42F8DAC1E9020291600C3004E028
:1029E0000020C1E9020202F10800016010BDC168C7
:1029F00031B182688A60826802B1D1600021C16011
:102A00007047B0B50446054625B12878F12802D1B3
:102A1000ED68F9E7B0BD2046FFF7E9FF28462146FB
:102A2000BDE8B040FFF7CDBF014601204870F24835
:102A30001C30FFF7C6BF00BF90F82210C9064FF048
:102A4000200158BF6021806B08447047EA498861C3
:102A500002214170704700BF10B5E74C227A022A6C
:102A600014D1626A92B1626950701046FFF7F4FEA9
:102A7000606A8168616211B104F11C02CA600221BE
:102A8000A06141700021C160012010BD002010BD77
:102A900004000020B0B5044690F822001546C00698
:102AA0004FF0200058BF6020A26B81502046FFF7F6
:102AB00011FF2046002DBDE8B04008BFFFF7B4BFAE
:102AC000FFF74EBFB0B5FEF78FFDCB4DE868013084
:102AD000E860FFF71DFF0020FFF742FF286D00B1FF
:102AE0008047296C71B1A869EA6B904205D0C26930
:102AF000E86322B9C1610A4601E0C2691AB1511EF8
:102B0000C16100D0B0BD297A0229FBD16C6A002CCA
:102B1000F8D090F8200094F820108142F2D120469D
:102B2000FFF765FFE86BFFF77FFF2046FFF78EFF9B
:102B3000286CEC63E061B0BD80B5FFF7C1FD10B15A
:102B40004FF0FF3080BDF14802490165002080BD93
:102B500004000020792B000882B004466D46204610
:102B6000294600224FF0FF33FFF7AAFB0028F6D1D9
:102B7000DDE900108847F2E72DE9F041E34D6C6C88
:102B800074B320696E694FF001080138206134B3D5
:102B9000206920BBE06808B1A16881606864E86CC6
:102BA00004F1180100220023FFF7C2FB60B1D5E950
:102BB0000570214668610320FFF759FC696986EAC0
:102BC0000700084308BF0646E078012811BF84F8D3
:102BD000018061692046FFF703F96C6CD7E76E61ED
:102BE000BDE8F0810400002080B548F27060C2F2B8
:102BF0000000007868B9FFE7FFF734FB022807DB25
:102C0000FFE748F27061C2F2000101200870FFE79F
:102C1000FFE748F27060C2F20000007880BD00005B
:102C200070470000E548007A704700BF04000020AC
:102C30002DE9F843DFF8D88598F8080028B1012875
:102C40006CD04FF0FF30BDE8F883374F388AD7E9B2
:102C50000B41A8F85400D7E90202C8F8400020460A
:102C6000C8F85C20FFF75DFC08B1C8F88040D7E9E0
:102C70000541DFF8B890D7E907562046C847D8F88D
:102C800080100028284618BF2146C8F87410314625
:102C9000C847D8F88010002818BF2946C8F878100F
:102CA000D7E909412046C847D8F88010002818BF46
:102CB00021467C6BC8F87C101CB1FEF79BFCC8F861
:102CC0008440BC6B1CB1FEF795FCC8F88840FC6BD7
:102CD0001CB1FEF78FFCC8F88C403C6C1CB1FEF7B1
:102CE00089FCC8F890407C6C1CB1FEF783FCC8F8E6
:102CF0009440BC6C1CB1FEF77DFCC8F89840FC6C9D
:102D00001CB1FEF777FCC8F89C403C6D1CB1FEF787
:102D100071FCC8F8A040012088F808000020BDE838
:102D2000F88300BF0400002030320008232500088B
:102D30002DE9F041002848D004460078FA2844D113
:102D40000F46002941D020461E461546FEF7F2FBED
:102D500000283FD0804620464146FEF737FC626A95
:102D600008F10C013846FDF7EDFA15B198F80300AB
:102D7000287004F10C0600254146304688F80050C2
:102D8000FFF707FCA06810B33046FFF7E5FB00250E
:102D9000E8B10646FEF73AFC002101220746FFF79C
:102DA00079FE3846FFF748FE4168626A074606F139
:102DB0000C00FDF7C7FAF9203146B5703070B868DD
:102DC000F0702046FEF7D6FB01E06FF003052846C1
:102DD000BDE8F08166B183203146FFF73DFE20B1AA
:102DE000DE4841692046FFF7ECFD6FF00105EEE794
:102DF0006FF00205EBE700BF040000202DE9F84F5B
:102E000048B10D4639B10446B0FA80F0B5FA85F103
:102E10000844202803D200263046BDE8F88F05F18B
:102E20000F0020F0030808FB04F95AB19668D2F8A5
:102E300000A0D2E904707EB1B107ECD1D168342989
:102E4000E9D30CE04FF0000A0027F149D1F8A000C7
:102E500058B1FFF781FB0EE0D1680029DBD157B3F1
:102E6000B907D8D14845D6D327E0D1F8800034211E
:102E70000122FFF7FFFA06464FF0010B67BB5EB376
:102E8000CDF800A0DFF888A349460022DAF87C00DC
:102E9000FFF7F0FA074620B138464946FDF797FAA2
:102EA00016E0BBF1000F12D0DAF8A00050B13146A5
:102EB000FFF76FFB0BE00028ADD1002EC5D04FF01F
:102EC000000BDBE7DAF880003146FFF709FB00264C
:102ED000DDF800A00BF1020B002E3FF49DAF0020A7
:102EE000214642463B4686F802B0C6E90950C6E98B
:102EF0000B00C6E901A0FA20307006F10C00FFF7C4
:102F00006DFBC3480249016786E700BF040000204B
:102F1000152600082DE9F04118B304460078FA2878
:102F20001FD10F46E9B1A0681E469046F0B1407827
:102F300083281BD1FEF76AFB0021012205460026EB
:102F4000FFF7A8FD2846FFF777FD05464068626A4F
:102F50003946FDF7F7F9A86828B180F80080002607
:102F600001E06FF003063046BDE8F08104F10C008B
:102F7000FFF7F2FA80B1626A05460C303946FDF778
:102F8000E1F9F9200026294685F8038028702046BB
:102F9000AE70FEF7EFFAE6E766B193203146FFF731
:102FA0005BFD20B19A4841692046FFF70AFD6FF0AA
:102FB0000106D8E76FF00206D5E700BF0400002045
:102FC00070B50446924845694DB32CB32078F52876
:102FD00022D1207E30B30E46E178CA0702D0E268E3
:102FE000AA422BD066B388070AD5E06895F920106D
:102FF00090F920208A4203DA80F82010FFF701FDC3
:1030000053203146FFF728FD18B120462946FFF727
:10301000D8FC6FF0010070BD6FF0030070BD4FF081
:10302000FF3070BD0020C4E90350E86A606100B160
:1030300004610120EC622076002070BDFF2802D1DF
:103040006FF0020070BD0130F5E700BFB0B520B3EE
:1030500004460078F52820D1207EC0B36169E0687D
:1030600009B122690A6100F12C0223691546002B7F
:1030700018BF03F11405296090F8211012687AB185
:10308000D3789B0707D593682BB193F920304DB2C5
:10309000AB42C8BFD9B21432F0E76FF00300B0BD45
:1030A00090F820208A420CD080F82010FFF7A9FC6D
:1030B00007E02046FFF77CFC6FF002010022FFF7DB
:1030C000E9FCA0680028F4D10020FFF749FCA178B2
:1030D00000202070C9070DD04D49D1F8940018B1D7
:1030E0002146FFF756FA04E0D1F880002146FFF7A9
:1030F000F7F90020B0BD00BF70B550B18468D0E9C9
:1031000000657CB1A10710D1C16800201C2917D22D
:1031100070BD002500263E49D1F8940038B1FFF774
:103120001BFA0AE0C0680028F5D0002070BDD1F875
:1031300080001C210122FFF79DF9044658B10120AF
:10314000A070F52011216660E570207004F1080080
:10315000FDF75FF900E00024204670BD0400002068
:1031600070B504462A48406970B154B12178F529F8
:1031700007D1217E11B1E268824209D06FF00204CA
:1031800004E06FF0030401E04FF0FF34204670BD0F
:1031900001392176090601D00024F7E7616909B1F8
:1031A00022690A6100F12C0223691546002B18BF21
:1031B00003F11405296090F82110126862B1D378E8
:1031C0009B0707D593682BB193F920304DB2AB42E2
:1031D000C8BF19461432F0E780F82010A06888B103
:1031E0002046FFF7E5FB0021002205460026FFF7F9
:1031F00051FCE86AC4E90356606100B10461012032
:10320000EC62207600200024FFF7AAFBBEE700BF97
:1032100004000020F1EE100A4FF6FF71C0F2C03139
:1032200020EA010040F04070E1EE100A7047000013
:1032300001000000E803000005000000200100205C
:10324000100000000000000000000000000000006E
:1032500000000000000000000000000060010020ED
:1032600000800000000000000000000000000000DE
:10327000000000000000000000000000000000004E
:1032800000000000000C0000EC32000828330008A9
:10329000592B0008392B00081033000804000000E7
:1032A000E48100206C82002000000000000000008B
:1032B000000000000000000000000000000000000E
:1032C00000000000000000000000000000000000FE
:1032D00060810020948100200000000000000000B8
:1032E00001020304060708090000000000000000B6
:1032F00000000000E48100204400000070820020F3
:1033000000020000010000000000000000000000BA
:103310000000000000000000608100203400000078
:103320009481002050000000000000000000000018
:103330002882002044000000708400200002000069
:103340002800000000000000000000005254582037
:1033500056352E352E34000078330008000000204A
:10336000A8000000D001000820340008A8000020B8
:10337000D08B0000EC010008007A030A4C330008EF
:10338000D4B3FB02000000000000000000000000B9
:10339000000000000000000000000000000000002D
:1033A000000000000000000000000000000000001D
:1033B000000000000000000000000000000000000D
:1033C00000000000000000000000000000000000FD
:1033D00000000000000000000000000000000000ED
:1033E00000000000000000000000000000000000DD
:1033F00000000000000000000000000000000000CD
:1034000000000000000000000000000000000000BC
:1034100000000000000000000000000000000000AC
:040000050800019559
:00000001FF
